{
  "contractName": "ERC721",
  "abi": [
    {
      "anonymous": false,
      "inputs": [
        {
          "indexed": true,
          "internalType": "address",
          "name": "from",
          "type": "address"
        },
        {
          "indexed": true,
          "internalType": "address",
          "name": "to",
          "type": "address"
        },
        {
          "indexed": true,
          "internalType": "uint256",
          "name": "tokenId",
          "type": "uint256"
        }
      ],
      "name": "Transfer",
      "type": "event"
    },
    {
      "inputs": [
        {
          "internalType": "address",
          "name": "_owner",
          "type": "address"
        }
      ],
      "name": "balanceOf",
      "outputs": [
        {
          "internalType": "uint256",
          "name": "",
          "type": "uint256"
        }
      ],
      "stateMutability": "view",
      "type": "function"
    },
    {
      "inputs": [
        {
          "internalType": "uint256",
          "name": "_tokenId",
          "type": "uint256"
        }
      ],
      "name": "ownerOf",
      "outputs": [
        {
          "internalType": "address",
          "name": "",
          "type": "address"
        }
      ],
      "stateMutability": "view",
      "type": "function"
    }
  ],
  "bytecode": "0x608060405234801561001057600080fd5b50610424806100206000396000f3fe608060405234801561001057600080fd5b50600436106100365760003560e01c80636352211e1461003b57806370a082311461006b575b600080fd5b6100556004803603810190610050919061023f565b61009b565b60405161006291906102ad565b60405180910390f35b610085600480360381019061008091906102f4565b61014c565b6040516100929190610330565b60405180910390f35b60008060008084815260200190815260200160002060009054906101000a900473ffffffffffffffffffffffffffffffffffffffff169050600073ffffffffffffffffffffffffffffffffffffffff168173ffffffffffffffffffffffffffffffffffffffff161415610143576040517f08c379a000000000000000000000000000000000000000000000000000000000815260040161013a906103ce565b60405180910390fd5b80915050919050565b60008073ffffffffffffffffffffffffffffffffffffffff168273ffffffffffffffffffffffffffffffffffffffff1614156101bd576040517f08c379a00000000000000000000000000000000000000000000000000000000081526004016101b4906103ce565b60405180910390fd5b600160008373ffffffffffffffffffffffffffffffffffffffff1673ffffffffffffffffffffffffffffffffffffffff168152602001908152602001600020549050919050565b600080fd5b6000819050919050565b61021c81610209565b811461022757600080fd5b50565b60008135905061023981610213565b92915050565b60006020828403121561025557610254610204565b5b60006102638482850161022a565b91505092915050565b600073ffffffffffffffffffffffffffffffffffffffff82169050919050565b60006102978261026c565b9050919050565b6102a78161028c565b82525050565b60006020820190506102c2600083018461029e565b92915050565b6102d18161028c565b81146102dc57600080fd5b50565b6000813590506102ee816102c8565b92915050565b60006020828403121561030a57610309610204565b5b6000610318848285016102df565b91505092915050565b61032a81610209565b82525050565b60006020820190506103456000830184610321565b92915050565b600082825260208201905092915050565b7f6f776e657220717565727920666f72206e6f6e2d6578697374656e7420746f6b60008201527f656e000000000000000000000000000000000000000000000000000000000000602082015250565b60006103b860228361034b565b91506103c38261035c565b604082019050919050565b600060208201905081810360008301526103e7816103ab565b905091905056fea264697066735822122086dbfd539f9b0c5ec4e69730069c4aabe9a0728c1d20d9508864cb3c713746a764736f6c634300080b0033",
  "immutableReferences": {},
  "source": "// SPDX-License-Identifier: MIT\r\npragma solidity ^0.8.0;\r\n\r\ncontract ERC721 {\r\n\r\n    event Transfer(\r\n        address indexed from,\r\n        address indexed to,\r\n        uint256 indexed tokenId);\r\n\r\n    mapping(uint256 => address) private _tokenOwner;\r\n\r\n    mapping(address => uint256) private _OwnedTokensCount;\r\n\r\n    function balanceOf(address _owner) public view returns(uint256){\r\n        require(_owner !=address(0), 'owner query for non-existent token');\r\n        return _OwnedTokensCount[_owner];\r\n    }\r\n\r\n    function ownerOf(uint256 _tokenId) external view returns (address){\r\n        address owner = _tokenOwner[_tokenId];\r\n        require(owner !=address(0), 'owner query for non-existent token');\r\n        return owner;\r\n\r\n    }\r\n\r\n\r\n    function _exists(uint256 tokenId) internal view returns(bool){\r\n        // setting the address of nft owner to check the mapping\r\n        // of the address from tokenOwner at the tokenId\r\n        address owner = _tokenOwner[tokenId];\r\n        // return truthiness the address is not zero\r\n        return owner != address(0);\r\n    }\r\n\r\n    function _mint(address to, uint256 tokenId) internal virtual {\r\n        //requires that the addresss isn't zero\r\n        require(to != address(0), 'ERC721: minting to the zero address');\r\n        //requires that the token does not already exist\r\n        require(!_exists(tokenId), 'ERC721: token already minted');\r\n        // we are adding a new address with a token id for minting\r\n        _tokenOwner[tokenId] = to;\r\n        // keeping track of each address that is minting and adding one\r\n        _OwnedTokensCount[to] += 1;\r\n\r\n        emit Transfer(address(0), to, tokenId);\r\n     }\r\n\r\n    }\r\n\r\n",
  "sourcePath": "C:\\Users\\garci\\Documents\\GitHub\\music-chain-dapp\\src\\contracts\\ERC721.sol",
  "compiler": {
    "name": "solc",
    "version": "0.8.11+commit.d7f03943.Emscripten.clang"
  },
  "schemaVersion": "3.4.4",
  "updatedAt": "2022-01-26T19:06:11.860Z",
  "devdoc": {
    "kind": "dev",
    "methods": {},
    "version": 1
  },
  "userdoc": {
    "kind": "user",
    "methods": {},
    "version": 1
  }
}